{
  "contractName": "Math",
  "abi": [
    {
      "inputs": [],
      "payable": false,
      "stateMutability": "nonpayable",
      "type": "constructor"
    },
    {
      "constant": false,
      "inputs": [
        {
          "name": "_a",
          "type": "uint256"
        }
      ],
      "name": "seta",
      "outputs": [],
      "payable": false,
      "stateMutability": "nonpayable",
      "type": "function"
    },
    {
      "constant": false,
      "inputs": [
        {
          "name": "_b",
          "type": "uint256"
        }
      ],
      "name": "setb",
      "outputs": [],
      "payable": false,
      "stateMutability": "nonpayable",
      "type": "function"
    },
    {
      "constant": true,
      "inputs": [],
      "name": "add",
      "outputs": [
        {
          "name": "",
          "type": "uint256"
        }
      ],
      "payable": false,
      "stateMutability": "view",
      "type": "function"
    },
    {
      "constant": true,
      "inputs": [],
      "name": "sub",
      "outputs": [
        {
          "name": "",
          "type": "uint256"
        }
      ],
      "payable": false,
      "stateMutability": "view",
      "type": "function"
    }
  ],
  "bytecode": "0x608060405234801561001057600080fd5b506000808190555060006001819055506101738061002f6000396000f300608060405260043610610062576000357c0100000000000000000000000000000000000000000000000000000000900463ffffffff16806349f3870b146100675780634f2be91f14610094578063b01d41ee146100bf578063c54124be146100ec575b600080fd5b34801561007357600080fd5b5061009260048036038101908080359060200190929190505050610117565b005b3480156100a057600080fd5b506100a9610121565b6040518082815260200191505060405180910390f35b3480156100cb57600080fd5b506100ea6004803603810190808035906020019092919050505061012f565b005b3480156100f857600080fd5b50610101610139565b6040518082815260200191505060405180910390f35b8060008190555050565b600060015460005401905090565b8060018190555050565b6000600154600054039050905600a165627a7a72305820caabab3357f52197c5b8c40876e0bb70e68e0ab7cf4cf3564e64a4c1f9bc4e3d0029",
  "source": "pragma solidity ^0.4.21;\n\ncontract Math {\n    uint a;\n    uint b;\n\n    constructor() public {\n        a = 0;\n        b = 0;\n    }\n\n    function seta(uint _a) public {\n        a = _a;\n    }\n\n    function setb(uint _b) public {\n        b = _b;\n    }\n\n    function add() public view returns(uint) {\n        return a+b;\n    }\n    function sub() public view returns(uint) {\n        return a-b;\n    }\n}\n",
  "sourcePath": "/Users/mtarun/git/solidityinttest/contracts/Math.sol",
  "compiler": {
    "name": "solc",
    "version": "0.4.24+commit.e67f0147.Emscripten.clang"
  },
  "schemaVersion": "2.0.0",
  "updatedAt": "2018-05-24T05:54:31.507Z"
}